:020000040800F2
:10000000881D00207D020008850200088702000884
:10001000890200088B0200088D0200080000000021
:100020000000000000000000000000008F02000837
:100030009102000800000000B51C0008E11C000847
:10004000970200089702000897020008970200082C
:10005000970200089702000897020008970200081C
:10006000970200089702000897020008970200080C
:1000700097020008970200089702000897020008FC
:1000800097020008970200088D1C000897020008DC
:10009000F11E000897020008970200089702000866
:1000A00097020008970200089702000897020008CC
:1000B000611E0008711E0008811E000897020008DA
:1000C00097020008970200089702000897020008AC
:1000D00097020008C11E0008D11E0008E11E00089A
:1000E000970200089702000897020008A11E000866
:1000F000B11E000800000000911E000897020008D1
:1001000000000000000000009702000897020008AD
:10011000970200089702000897020008970200085B
:100120009702000800F002F800F099F80AA090E8A1
:10013000000C82448344AAF10107DA4501D100F0A2
:100140008EF8AFF2090EBAE80F0013F0010F18BFD6
:10015000FB1A43F00103184770540000905400004C
:10016000103A24BF78C878C1FAD8520724BF30C8E3
:1001700030C144BF04680C607047000000230024B5
:1001800000250026103A28BF78C1FBD8520728BFA7
:1001900030C148BF0B6070476E2900F0B9827029EA
:1001A00000F00384662904F0D487652904F0D18720
:1001B000672904F0CE876129AFF3008003681B0A2A
:1001C00028BF41F08001692900F06682642900F0AF
:1001D0006382752900F060826F2900F0908378298E
:1001E00000F0CF83E92900F02B83E42900F0288375
:1001F000F52900F02583EF2900F08D83F82900F020
:10020000CE830368DB0928BF41F08001632900F039
:100210009987732900F09E87E32900F0A987F329C5
:1002200000F0AE87002070471FB59DE8030000F086
:100230009BF901F01BF804000020002103F0E2FF0D
:10024000401C60600020002103F0C6FFE06000F069
:1002500053F91FBD10B5002000F076FC10BD00F072
:10026000D8FF1146FFF7E0FF03F082FE01F0B4F87B
:1002700003B4FFF7EFFF03BC00F050F909488047D3
:1002800009480047FEE7FEE7FEE7FEE7FEE7FEE778
:10029000FEE7FEE7FEE7FEE704480549054A064B90
:1002A000704700001D1D000825010008880500207A
:1002B000881D00208811002088110020EFF308809D
:1002C00020E9F00F80F30888704780F30888EFF387
:1002D0000880B0E8F00F80F30888704770B50646D4
:1002E00000F022F9056806F10B0020F00704B44283
:1002F0009CBF002070BD2B466A68BAB11068A0424E
:1003000010D304F1080188423CBF5068586007D3FD
:100310005168101941601168091B01605860146030
:10032000101D70BD13465268002AE7D121462846A9
:1003300000F006F90028DED170BD70B50446051F37
:1003400000F0F2F80068002C14BF446870BD002C67
:1003500018BFAC423CBF20466468F8D301680A1855
:10036000AA4218BF456003D12A68054611440160BE
:1003700028684119A1421CBF6C6070BD616869604A
:1003800021680844286070BD53EA020C00F06980BF
:100390002DE9F04B4FF00006002B1FBFB3FA83F599
:1003A00003FA05F424FA05F65E4012BF1643B2FACA
:1003B00082F502FA05F4C5F120051EBF22FA05FCFC
:1003C00044EA0C04203556EA044C4FEA144418BFA2
:1003D000641C4FF000084FF00009904271EB030CD1
:1003E00039D3002919BFB1FA81F701FA07F6B0FA3B
:1003F00080F700FA07F6C7F120071EBF20FA07FCB6
:1004000046EA0C062037B6FBF4FCA7EB0507103FC5
:1004100007F01F0BCBF120060CFA0BFB2CFA06F6AB
:1004200044BFB3460026202FA4BF5E464FF0000B0A
:100430005BEA060C08BF4FF0010B19EB0B09ABFB95
:10044000027C48EB0608C01B06FB02CC0BFB03CC6E
:1004500071EB0C01C1E70B46024641464846BDE838
:10046000F08B13B54FF000004FF00001AFF30080A8
:10047000BDE81C40704700007CB51D4616460C00C8
:10048000009001D02044401E074B7B442A46694619
:100490000190304600F055F905461CB10020694630
:1004A00000F062F928467CBDE502000010B500208E
:1004B00000F06BFBFFF7CEFEBDE81040012000F01E
:1004C0002DB82DE9F041074615460E461020FFF7DE
:1004D00005FF04000AD06760C4E9026500F028F84F
:1004E0000168216004600020BDE8F0810120FBE785
:1004F000704770477047000070B5064C7C44064D4D
:100500007D4403E0206820448047241DAC42F9D19B
:1005100070BD000014520000145200000149182060
:10052000ABBEFEE726000200004870473005002001
:10053000004870476005002070477047704770475B
:1005400038B504460A4600206946AFF3008000280B
:1005500008BF38BD02460099204600F022FB01206A
:1005600038BD012000F04EBEF8B5AFF3008005465F
:1005700000200C46102000BF0646A819A0420DD945
:10058000324669460020AFF30080070008BF00F044
:1005900039FE0098A04218BF0546C419FFF7C4FFF2
:1005A00005600746F01D20F007004619284600F0B8
:1005B0000AF8B44208BFF8BDA21B31463868BDE84E
:1005C000F84000F0EEBA00210160C0E90110704768
:1005D0001020704770B5044685690068C10601D5D2
:1005E000302600E02026C00707D070BDD4E90121E5
:1005F00030469047206A401C20626D1EF6D570BDC3
:1006000070B5044685690078C00707D170BDD4E98C
:10061000012120209047206A401C20626D1EF6D5E3
:1006200070BD09684A0501D540B27047C905FCD5BF
:1006300000B2704709684A0501D5C0B27047C905C4
:10064000FCD580B2704770B50C460546012A05D02E
:100650002878800600D5EA69002302E0012305E03E
:100660005B1C934202D2E05C0028F9D1A869E6182D
:10067000C01AA861286A184428622846FFF7AAFF12
:1006800004E0D5E9012114F8010B9047B442F8D3F6
:100690002846FFF7B5FF70BD2DE9F041064600245E
:1006A00010687529314616A510D0FFF7BAFF00284B
:1006B00002DA404213A507E031688A0701D512A586
:1006C00002E0490704D511A5012401E0FFF7B2FFBC
:1006D00000210A2206F1240709E0B0FBF2FCB0FB7E
:1006E000F2F302FB1C00303078541846491C0028F5
:1006F000F3D123462A463046BDE8F04100F0B0BAB7
:10070000000000002D0000002B0000002000000071
:1007100011680268006A530501D508700AE0D30524
:1007200001D5088006E0130603D5C217C1E900020F
:1007300000E008600120704701694A1C02610878E6
:10074000704700B58FB0CDE9013100210591054911
:100750007944CDE903101146684600F031F90FB035
:1007600000BD0000E5FFFFFF0A6802F8010B0A6008
:100770007047D1E900239A4202D2531C0B601070DB
:10078000704700002DE9FF5F15468A460446DFF8F2
:10079000AC80F8440027D8E900103E46CDE90010AF
:1007A00010E03AF816106A4602A800F0EDFC411C71
:1007B00007D02178890603D5E269391891420DD80E
:1007C0000744761C2078800602D5E069B84205DD32
:1007D000AE42E6DB3AF816000028E2D1A069C01B61
:1007E000A0612046FFF7F6FED8E90010CDE9001021
:1007F000002017E03AF818106A4602A800F0C4FC7E
:10080000B0F1FF3F81460BD000250DF1080B05E04C
:10081000D4E901211BF8050090476D1C4D45F7D325
:1008200008F10100B0428046E4DB206A38442062CF
:100830002046FFF7E5FEBDE8FF9F0000C24900002B
:100840002DE9F0418046D21D22F007020025D2E9B1
:100850000002F52915A614D0011E72F1000106DA76
:100860000023D0EB030063EB020211A608E0D8F8E6
:1008700000108B0701D50FA602E0490701D50EA68F
:1008800001251146002408F1240704E000F0A3F933
:1008900030323A55641C50EA0102F7D12B463246F9
:1008A00021464046BDE8F04100F0DAB90000000002
:1008B0002D0000002B0000002000000030B40021BB
:1008C00000F1240408E002F00705D208303542EABE
:1008D0004372DB086554491C52EA0305F3D10468EE
:1008E000002310A2250707D5A40600D421B1C469AE
:1008F00001230DA2641EC46130BC00F0B1B910B573
:10090000044621461068FFF795FE02462046BDE8E2
:1009100010400023D2E7D21D22F00701D1E90023C5
:10092000CCE700000000000030000000F0B40D46ED
:100930000188090502D5214C7C4402E01F4C7C440F
:100940000E34002100F1240608E002F00F0712091E
:10095000E75D42EA03721B097754491C52EA030718
:10096000F3D102780023120704D5702D06D009B107
:10097000022311342246F0BC00F072B90123103476
:10098000F8E770B504460D4621461068FFF752FEA1
:10099000024629462046BDE870400023C6E7D21D26
:1009A00022F00703D3E90023C0E70368126843F08D
:1009B000200303600823C3610023B7E72448000035
:1009C0002DE9F05F894604464FF0000ADFF874B164
:1009D000FB44C0F820A02046E1688847002874D076
:1009E000252806D0D4E901219047206A401C2062C6
:1009F000F1E700265F462046E16888472028054643
:100A000007DB312D05D2781910F8200C08B1064308
:100A1000F1E7B00701D526F00406C4F81CA00027B2
:100A2000C4F818A02A2D09D0284603F099FA38B343
:100A300004EB8708303DC8F8185019E059F8041B3A
:100A4000204604EB87029161E1688847012F054643
:100A500018D1E069002820DA26F020061DE0D8F839
:100A6000180000EB800005EB40003038C8F8180093
:100A70002046E1688847054603F072FA0028EED167
:100A8000012F0AD02E2D08D12046E16888477F1C0F
:100A90000546022F46F02006C4DBA069002803DAD1
:100AA000404246F00106A061F00701D026F0100692
:100AB0006C2D0BD0682D09D04C2D39D06A2D35D036
:100AC000742D35D07A2D33D016E038E0E1682F460A
:100AD00020468847B842054609D16C2F26D04FF4EE
:100AE0008060E168064320468847054604E06C2F95
:100AF0001AD04FF4807006430DB3A5F141001928B8
:100B000002D8203546F400664A462946204626602B
:100B10004E46FFF741FB80B101280BD0F61D26F0B1
:100B2000070000F1080956E74020E4E78020D8E7F5
:100B30000020D6E706F104094DE7284652E7206A6F
:100B4000BDE8F09FB44700002DE9F0410646FFF7ED
:100B5000EFFC8046454613E016B1E068B0420ED186
:100B600020682860D4E90101D8F800708847204641
:100B7000FFF7E3FBD8F80000B842EBD100E02546D0
:100B80002C68002CE8D1BDE8F08110B500F022FB04
:100B9000BDE8104000F018BB004870472805002051
:100BA0007047034640688C46002818BF88423CBF07
:100BB00003464068F8D318681844884207D00CF1FF
:100BC000030020F00700001D411A521A0146081DBB
:100BD0000A60FFF7B2BB30B5B0F10A024FEA900EDF
:100BE00071F100034EEA817EB0EB0E0061EB9101E2
:100BF0004FEA101E4EEA017E10EB0E0041EB111180
:100C00004FEA102E4EEA016E10EB0E0041EB11215F
:100C10004FEA104E4EEA014E10EB0E0041EB11412F
:100C2000401841F100014FEAD00040EA41704FEA1C
:100C3000D10110EB80054FEA810444EA907444EB43
:100C400001046D1944EB0404521BA3414FF000034F
:100C500048BF0A3200D530BD401C41F1000130BD13
:100C60002DE9F0470D4699469246044600F12408C6
:100C70000168880604D5E06921F01001216000E0D8
:100C80000120A84201DD471B00E00027A1697A1975
:100C900002EB0900081AA0612078C00602D42046A1
:100CA000FFF798FC002608E0D4E901211AF80600B5
:100CB0009047206A401C761C20624E45F4DB207869
:100CC000C0060AD52046FFF785FC06E0D4E90121DD
:100CD00030209047206A401C2062381EA7F101078F
:100CE000F4DC07E0D4E9012118F805009047206AF8
:100CF000401C2062281EA5F10105F3DC2046FFF709
:100D00007FFC2078000602D50220BDE8F087012094
:100D1000FBE770472DE9FF4F0C461E464FF0FF37AB
:100D20008BB0D2E90001DDF860800A908A46C1F3F9
:100D30000A5505B93D46002108464FF00000BAF1BA
:100D4000000F00F4400005DA00EB80004FF4400192
:100D500001EA50004FEA9059B9F1010F00DDB946A0
:100D60000A9850EA4A000ED044F61050A5F2FF351A
:100D700045432F14B8F1000F1ED07542291E1EDD09
:100D8000C9F100021CE0B8F1010F4FF0000001D0E2
:100D9000302103E0F24305E02154401CB042FBDB6C
:100DA00030460022002121540B99C1F80880C1E986
:100DB00000200FB0BDE8F08FBD1B6D1CDEE74A467A
:100DC00000DA694206A800F095FA06AB93E807003E
:100DD00003AB83E8070050460A9900F08FFB8DE8CB
:100DE0000700A0F500501F3800900398002D0ADD81
:100DF00042F21F014A460844002303A903906846B3
:100E000000F0F8FD09E0A0F500504A461F38002325
:100E100003A90390684600F002FE8DE80700000475
:100E2000000C03D04FF0FF30410800E01046B8F14D
:100E3000000F03D00022009215461EE0751E05D457
:100E4000FFF7C9FE303262556D1EF9D5B346012257
:100E5000084302D000227F1C04E02078302801D112
:100E600000227F1E002A099784D01DE0112D07DA89
:100E7000FFF7B1FE303262556D1C50EA0102F5D128
:100E8000084302D00098C8B10EE00021681E05E0BA
:100E9000235C625C63542254401E491C8142F7DB90
:100EA000AB46A81B401E0990002004F80B000B98CD
:100EB000099AC0F80880C0E9002B7AE711264FF0A4
:100EC000000857E72DE9F04F88460446D21D22F06E
:100ED000070191B0D1E90001CDE90A0102F01CFE41
:100EE00002460B98C00F01D02D2007E02068810733
:100EF00001D52B2002E0202101EAC000032A09903D
:100F000001D0072A05DB03464146204600F0B2F92E
:100F10000BE12078800601D5E06900E00620B8F1F9
:100F2000650F814606D0B8F1660F18D0B8F1670F8B
:100F300070D131E00020B9F1110F009001DB1123D5
:100F400001E009F101030AAA01A90CA8FFF7E2FEDA
:100F5000DDE90C70002609F10105834647E0012018
:100F60004B4600904FF000470AAA01A90CA8FFF7D2
:100F7000D1FEDDE90DB00C995D46002610B909F1EE
:100F800001000D18B9EB050003D4C0F1FF3609F1DB
:100F90000105A5EB09002BE0B9F1010F01DA4FF0D3
:100FA00001090020B9F1110F0090484601DD11231D
:100FB00000E003460AAA01A90CA8FFF7ABFEDDE991
:100FC0000C704D4600268346207800070AD4AB45B6
:100FD00000DA5D4601A8012D04DD411911F8011C5C
:100FE000302907D04F4502DA17F1040F04DA012047
:100FF00082460FE06D1EEEE7002F02DCED1B3E4443
:1010000003E0781CA84200DD7D1CB81B00F1010A3A
:101010004FF000472078000703D4AA4501DB4FF0CA
:10102000FF3A0021B7F1004F0DF143088DF843104E
:1010300024D002202B23002F01DA7F422D230A2106
:10104000021EA0F1010000DC5FB197FBF1FC97FBF1
:10105000F1F201FB1C7C17460CF1300C08F801CDB5
:10106000EEE7A8F1010003702188090501D54521AB
:1010700000E06521A0F1010800F8011C09980FA902
:10108000A1EB0807FF1D00B10120411901EBEA7037
:10109000A1693844081A401EA0612078C00602D415
:1010A0002046FFF797FA099828B1D4E90121904723
:1010B000206A401C20622078C00622D52046FFF717
:1010C00089FA1EE0002E04DBB34502DD01A8805D35
:1010D00000E03020D4E901219047206A401C2062C2
:1010E000761CAAF101005FEA000A0AD100F0BEF8FE
:1010F000C0680168405CD4E901219047206A401C27
:101100002062281EA5F10105DCDC07E0D4E90121FD
:1011100018F8010B9047206A401C2062381EA7F186
:101120000107F3DC2046FFF76BFA032011B041E61C
:1011300010B5436913B1AFF3008001E0FFF783FA04
:10114000012010BD127800F124010A7000224A70BB
:101150000122EDE711684FF0FF32E9E710B543696E
:1011600013B1AFF3008001E0FFF70CFB012010BDCD
:10117000128800F1240182840022C2840122EDE75A
:1011800011684FF0FF32E9E770B516460C46054688
:1011900000F064F8036893F80101012806D0FF2CE1
:1011A0000FD8185D68B101202C7070BDD3F807010D
:1011B0003246214603F2071303442846BDE8704037
:1011C00018474FF0FF3070BD002801D0FFF7A6B9D7
:1011D0007047000010B5002102A000F006F90120C0
:1011E00010BD0000534947414252543A2041626EBB
:1011F0006F726D616C207465726D696E6174696F78
:101200006E00000010B500F009F9BDE81040FFF7CE
:10121000DBBF7546FFF7C0FCAE4605006946534686
:1012200020F00700854618B020B5FFF735F8BDE877
:1012300020404FF000064FF000074FF000084FF03D
:10124000000B21F00701AC46ACE8C009ACE8C009CE
:10125000ACE8C009ACE8C0098D46704710B500F095
:1012600005F8001D10BD00BF9D2F0000004870470D
:10127000480500202DE9F0411F4604460326016879
:10128000072A01F4006004DB08B116A505E016A5E5
:1012900003E008B115A500E015A521F010002060BD
:1012A000A069C01EA0610FB1401EA0612046FFF7DB
:1012B00091F94FB1D4E9012138469047206A401C8A
:1012C0002062C01C206206E0206AFAE7D4E901210E
:1012D00015F8010B9047761EF8D22046FFF790F9DB
:1012E000BDE8F0814E414E006E616E00494E4600F1
:1012F000696E66002DE9F047814616468AB035488A
:1013000078440DC88DE80D0032487844801C03AC49
:101310000DC884E80D0041F69B300844372190FB4E
:10132000F1F290FBF1F5A5F1800501FB12041B3CE5
:1013300002D56442012000E00020DFF898A080463A
:101340000027FA44AAF1BE0A0EE0E0070AD03246AE
:10135000684607EB470101230AEB810100F05FFBC0
:101360008DE8070064107F1C002CEED1194F7F44DC
:10137000AE3F19E0E80715D007EB04100DF1180A8D
:1013800090E80E008AE80E00C068F04201D198197A
:1013900008903246012306A903A800F040FB03ABE6
:1013A00083E807006D10641C002DE3D14FF00103AA
:1013B00032466946B8F1000F03A802D000F01AFBCC
:1013C00001E000F02CFBC9E90001C9F808200AB0CF
:1013D000BDE8F087143F000010B50446AFF300806D
:1013E0002046BDE81040FEF743BF70B505460C46E9
:1013F0000A2000E06D1C00F039F835B1287800288B
:10140000F8D102E0641C00F031F814B12078002813
:10141000F8D1BDE870400A2000F028B810B50128C6
:1014200005D0002103A0FFF7E0FF012010BD09A1B6
:10143000F8E7000053494752544D454D3A204F7547
:1014400074206F662068656170206D656D6F7279BC
:10145000000000003A2048656170206D656D6F7274
:101460007920636F727275707465640008B569469F
:101470008DF800000320ABBE08BD00004FF0013C1A
:1014800050F8042B51F8043B9A4221D1A2EB0C03F3
:10149000934313EACC1317D150F8042B51F8043BB3
:1014A0009A4215D1A2EB0C03934313EACC130BD150
:1014B00050F8042B51F8043B9A4209D1A2EB0C03DB
:1014C000934313EACC13DBD04FF00000704700BF0A
:1014D000D01A01BAB1FA81F101F0180122FA01F033
:1014E000CB40C1F12001DBB2C0B2C01A2CFA01F32B
:1014F000D11A914311EAC311E6D170475FEA400C5B
:1015000008BF91F0000F4FEA8C234FEAC12243EA53
:1015100051514FEA1C5018BF00F5F0404FEA30001F
:1015200018BF41F000415FEA6C5C00F02980BCF11B
:10153000FF3F08BF40F080407047130C06BF120405
:101540004FF0100C4FF0000C130E04BF12020CF100
:10155000080C130F04BF12010CF1040C930F04BF0D
:1015600092000CF1020CD30F04BF52000CF1010CDD
:1015700011464FF00002A0F11F00A0EB0C007047D5
:1015800011F0004F08BF704731F000413FF4D5AF74
:101590000B0C06BF09044FF0100C4FF0000C0B0EA3
:1015A00004BF09020CF1080C0B0F04BF09010CF178
:1015B000040C8B0F04BF89000CF1020CCB0F04BF8D
:1015C00049000CF1010CCCF12003A0EB0C0022FA35
:1015D00003F302FA0CF241EA030100F10100704743
:1015E00020F07F4C80EA030023F07F47ACEB070339
:1015F00003F57C5300F0004003F1FF032DE980491F
:101600004FEA154B09B44FEA144325EA0B4E24EA7E
:1016100003480FF2042606EB132749083E785FEAD9
:10162000320203FB0667C7F5000707FB06F64FEA21
:1016300054374FEAD64606F1020607FB066CCCF19A
:10164000005C4FEA1C472CEA074C07FB06F40CFB36
:1016500006F504EB15464FEA961634BF00204FF00E
:1016600000404FEAD13706FB07FC4FEA1C4C0CFB4D
:101670000BF7D21B03FB0CF761EB07010CFB0EF71A
:10168000B0EB074072EB17420CFB08F734BFA2EB3C
:101690000742B2EB074261EB17414FEA0C444FEAB5
:1016A000910706FB07FC4FEA1C4C0CFB0BF7B0EB59
:1016B000C74072EB573203FB0CF734BFA2EBC742B3
:1016C000B2EBC74261EB57310CFB0EF7B0EBC70032
:1016D00072EB57720CFB08F734BFA2EBC702B2EBF8
:1016E000C70261EB5771039F4FEA816141EA921192
:1016F00004EBCC044FEAD1374FEA826206FB07FCC9
:1017000042EA90124FEA80604FEA1C4C0CFB0BF748
:10171000D21B03FB0CF761EB07010CFB0EF7B0EBE0
:10172000074072EB17420CFB08F734BFA2EB0742ED
:10173000B2EB074261EB17414FEA8C554FEA910734
:1017400004EB9C2406FB07FC4FEA1C4C0CFB0BF73C
:10175000B0EBC74072EB573203FB0CF734BFA2EB80
:10176000C742B2EBC74261EB57310CFB0EF7B0EB4F
:10177000C70072EB57720CFB08F734BFA2EBC7022D
:10178000B2EBC70261EB577115EB4C254FEA816153
:1017900041EA92114FEA82624FEAD13742EA90124F
:1017A00006FB07FC44F100044FEA80604FEA1C4C42
:1017B0000CFB0BF7D21B03FB0CF761EB07010CFBD7
:1017C0000EF7B0EB074072EB17420CFB08F734BF83
:1017D000A2EB0742B2EB074261EB174115EB1C1578
:1017E0004FEA813141EA92414FEA823242EA904225
:1017F0004FEA80304FEA0C7644F1000448EA034394
:101800004EEA0B484FF0000EB2EB080C71EB0307E9
:1018100024BF624639464EEB0E0E4FF0000B001807
:10182000524149414BEB0B0BB2EB080C71EB030738
:101830007BF1000B24BF624639464EEB0E0E4FF093
:10184000000B0018524149414BEB0B0BB2EB080C5B
:1018500071EB03077BF1000B24BF624639464EEB68
:101860000E0E51EA020718BF46F0010616EB0E767F
:1018700055F1000254F1000103D5BDE88901BDE82E
:101880000088BDE88901BDE80048B619524141EB26
:101890000101A3F10103704780807F7E7D7C7B7A0C
:1018A0007978777676757473727171706F6E6E6D0C
:1018B0006C6C6B6A6A6968686766666564646363B2
:1018C00062616160605F5F5E5E5D5D5C5C5B5B5A38
:1018D0005A595958585757565655555554545353A5
:1018E00052525251515050504F4F4F4E4E4D4D4D00
:1018F0004C4C4C4B4B4B4A4A4A494949484848474B
:101900004747474646464545454444444443434388
:101910004342424242414141002B9C4630D4770031
:101920002BD01CB54FEA370703B44FF010004FF02F
:101930001001BAF1000F06D0BCF1000FDCBF40F07F
:10194000080040F008014FF000000FBCBDE8104057
:101950000BF1010BBBF1010F08BF5FEA170722BFB4
:1019600012F1010211F101014FF0004143F10003B6
:1019700000F0004043EA00007047F9D35708D0E771
:1019800046EA064613F1400F4FEA16461FDD13F1F3
:10199000200FDFBF16430A46002120335B42BED032
:1019A000C3F1200746EA064602FA07F74FEA164651
:1019B00046EA0706C3F1200722FA03F201FA07F705
:1019C00021FA03F14FF0000342EA0702A7E746EAD3
:1019D000020646EA06464FEA164646EA0106BCBF3C
:1019E00046EA0646360C4FF000034FF000024FF077
:1019F000000194E72DE9804C9A46934670B491E833
:101A0000380007C831EA400C48BF34EA430C03D51C
:101A1000FFF7E6FDFFF780FFF0BCBDE8008C2DE985
:101A2000804C9A46934670B491E8380007C810F08D
:101A3000804F08BF13F0804F03D100F005F8FFF787
:101A40006BFFF0BCBDE8008C20F07F4780EA03000C
:101A500023F07F4C07EB0C03A3F57C5300F0004010
:101A6000A3F1FE0392F0000F00F0B38095F0000F99
:101A700000F077802DE901494FEA11404FEA144602
:101A800021EA004800FB06FC24EA064708FB06F6AC
:101A900007FB08F800FB07F718EB06484CEB164C61
:101AA0004FEA124B18EB07484FEA15464CEB17402C
:101AB00022EA0B4E0BFB06FC25EA06470EFB06F658
:101AC00007FB0EFE0BFB07F71EEB064E4CEB164C0E
:101AD0004FF000061EEB074E4CEB174B18EB0B08B4
:101AE00040F1000018EB0E0B58EB000840F100002D
:101AF0008F1A4FF000013CBFC943661B14BFB5EB02
:101B0000040C00213CBFC943F61B4FEA17444EEAC0
:101B10008E0E27EA04454FEA1C4704FB07622CEAB5
:101B2000074C05FB07F70CFB05F604FB0CFC16EB5A
:101B3000074642EB174216EB0C4642EB1C421BEBEE
:101B4000060658EB0202414146EA9E0601D5BDE871
:101B50000189B619524141EB0101A3F10103BDE82E
:101B600001894FEA14454FEA114724EA054621EA64
:101B7000074C05FB07F406FB07F70CFB06F105FB1A
:101B80000CFC11EB074144EB17444FEA124711EBF1
:101B90000C4144EB1C4422EA074C05FB07F206FB10
:101BA00007F70CFB06F605FB0CFC16EB074642EBB1
:101BB000174216EB0C4642EB1C456A1854F1000123
:101BC00048BF7047B619524141EB0101A3F101032F
:101BD000704795F0000F37D04FEA11424FEA144793
:101BE00021EA024624EA074C02FB07F106FB07F74D
:101BF0000CFB06F402FB0CFC14EB074441EB174111
:101C00004FEA154714EB0C4441EB1C4125EA074C05
:101C100002FB07F506FB07F70CFB06F602FB0CFCC4
:101C200016EB074645EB174516EB0C4645EB1C42F9
:101C3000121951F1000148BF7047B619524141EBEA
:101C40000101A3F1010370474FEA14454FEA114720
:101C500024EA054621EA074C05FB07F106FB07F7D6
:101C60000CFB06F24FF0000605FB0CFC12EB0742E2
:101C700041EB174112EB0C4251EB1C4148BF70473E
:101C8000921841EB0101A3F10103704710B5074819
:101C9000006820F0020005490860054800680068F7
:101CA000016903480068884710BD00000024014016
:101CB000D400002010B5FEF701FB074908600021A1
:101CC00005480068054A12689047034908600846BD
:101CD0000068FEF7FAFA10BD08010020C8000020D5
:101CE00010B5FEF7EBFA0A4908600A480068401C84
:101CF00008490860012106480068074A12689047B1
:101D00000349086008460068FEF7DFFA10BD0000CE
:101D100004010020CC000020C80000204A480068D0
:101D200040F48070484908604748083000684749D7
:101D30000840454908310860434800684449084064
:101D4000414908600846006820F4802008603E4849
:101D50000830006820F47D003B490831086000200D
:101D6000091D08603848006840F4A0203649086022
:101D70000846006840F001000860002006E0324993
:101D8000096801F4003101B103E0401CB0F5A06F17
:101D9000F5D32D48006800F4003000284FD02D48BE
:101DA000006840F004002B4908600846006840F0D5
:101DB000020008600846006840F001000860224800
:101DC0002430006840F080501F4924310860C81456
:101DD0002149086000BF2048406800F0100000283A
:101DE000F9D11948083000681749083108600846D9
:101DF000006808600846006808600846006840F40B
:101E0000110008601048006840F080700E490860BA
:101E100000BF0D48006800F000700028F9D00A48A3
:101E20000830006840F0030007490831086000BF2F
:101E300005480830006800F00C000C28F8D14FF07D
:101E40000060064908607047003802400CC0FF88F7
:101E5000FEFFFEEE003C02400070004008ED00E096
:101E600010B50248006800F061F810BDD8000020ED
:101E700010B50248006800F059F810BDDC000020E1
:101E800010B50248006800F051F810BDE0000020D5
:101E900010B50248006800F049F810BDE4000020C9
:101EA00010B50248006800F041F810BDE8000020BD
:101EB00010B50248006800F039F810BDEC000020B1
:101EC00010B50248006801F001FE10BDF0000020CE
:101ED00010B50248006801F0F9FD10BDF4000020C3
:101EE00010B50248006801F0F1FD10BDF8000020B7
:101EF00010B50248006801F0C9FC10BDFC000020CC
:101F0000002809DB00F01F020121914042099200E4
:101F100002F1E022C2F8001170470000024B03609A
:101F20008180C280704700003852000810B5044616
:101F3000002061690882206801692046884710BD39
:101F40002DE9F04788B004460E46914622465E4889
:101F5000206002F1080001F021F9A0F1080200BFA1
:101F600014465A4810602674207C801E062804D22D
:101F7000DFE800F00413212F3D4B54E04FF0804088
:101F80006061534804605348006840F001005149C3
:101F900008601C20FFF7B4FF45E04F4860614F48E0
:101FA00004604C48006840F002004A4908601D2067
:101FB000FFF7A6FF37E04A4860614A480460454899
:101FC000006840F00400434908601E20FFF798FFB6
:101FD00029E045486061454804603E48006840F09B
:101FE00008003C4908602E20FFF78AFF1BE04048AC
:101FF0006061404804603748006840F0100035498F
:1020000008602B20FFF77CFF0DE03B4860613B48F8
:1020100004603048006840F020002E4908602C2001
:10202000FFF76EFF00BF00BF484602F04DFF80463D
:10203000334902F091FF0746324902F08DFF824694
:10204000012507E005EB850045002F49504602F0C9
:1020500059FE82462D49504603F04AF8F2D35046C5
:1020600002F012FFE060284602F019FC074688469D
:10207000E06802F014FC0022254BCDE9000102F0DB
:1020800021FC3A464346CDE9020102F01BFC002246
:10209000204BCDE9040102F07DFACDE9060102F002
:1020A000D1FB606001206169088061698881616994
:1020B0008882681E616908856169E068C862204697
:1020C00008B0BDE8F08700004854000858520008E6
:1020D000D80000202438024000040040DC0000202A
:1020E00000080040E0000020000C0040E400002058
:1020F00000100040E800002000140040EC00002028
:102100000024F44BBD3786350000204100FF7F4797
:1021100080842E4180847E412DE9FF5F04468846FD
:102120004146204600F096F808B1BDE8FF9F002028
:10213000464BCDE9003002900390206901681423DA
:102140000022D1F808C00121E0472169606800F051
:10215000BDFE2569A06800F067FF039001F080FADA
:102160008146606800F060FF039001F079FA8246D2
:10217000206800F059FF039001F072FA834634485A
:10218000CDE901BACDF80C90009028681423002204
:102190000321D0F808C02846E0472169A06800F074
:1021A00095FE2669A06800F03FFF039001F058FA01
:1021B0008146606800F038FF039001F051FA8246D2
:1021C000206800F031FF039001F04AFA834620486E
:1021D000CDE901BACDF80C900090306814230022AC
:1021E0000321D0F808C03046E0472169206800F09C
:1021F0006DFE2769A06800F017FF039001F030FA28
:102200008146606800F010FF039001F029FA8246D1
:10221000206800F009FF039001F022FA83460C4881
:10222000CDE901BACDF80C90009038681423002253
:102230000321D0F808C03846E047B8F1010F03D1B8
:10224000D4E9030100F042FE00BF6EE734550008F8
:10225000455500082DE9F04104460D46012D11D1E8
:10226000206800F07BFE0746606800F077FE0740BC
:10227000A06800F073FE0740E06800F06FFE07EA18
:1022800000060FE0206800F069FE48B1606800F0C9
:1022900065FE28B1A06800F061FE08B1012000E0F1
:1022A0000020064616B10120BDE8F0810020FBE7C2
:1022B00038B5044632480090206901681423002292
:1022C0008D681146A84701212046FFF725FF2D48BC
:1022D000009020690168142300228D681146A847E8
:1022E00028232A222021204600F052F804230D2121
:1022F000D4E9030201F008F900212046FFF70CFFA2
:10230000392325223E21204600F042F8D4E903017A
:1023100001F008F900212046FFF7FEFE53232A2290
:102320002021204600F034F804230E21D4E90302D2
:1023300001F0EAF800212046FFF7EEFE2B232522CC
:102340003E21204600F024F8D4E9030101F0EAF828
:1023500000212046FFF7E0FE0B480090206901684D
:10236000112300228D680121A847084800902069A8
:102370000168142300228D681146A84738BD00006B
:1023800059550008685500087C5500088E5500080E
:102390002DE9F04F87B004460F4615461E465248B9
:1023A000CDE9017503960090206901681123002290
:1023B000D1F808C00121E04700204C4BCDE90030A6
:1023C000029003902069016814230022D1F808C00C
:1023D0000321E047012339462269206800F028FEE6
:1023E000D4F81080A06800F01FFE049001F038F9C6
:1023F0008346606800F018FE049001F031F9069001
:10240000206800F011FE049001F02AF90590374A87
:10241000DDE90510CDE9020BCDE90021D8F8000077
:10242000142300220321D0F808C04046E0470323CC
:1024300031462269A06800F0FBFDD4F81090A06836
:1024400000F0F2FD049001F00BF90690606800F0D6
:10245000EBFD049001F004F90590206800F0E4FD24
:10246000049001F0FDF88346204ADDE90510CDE92E
:10247000002BCDE90210D9F800001423002203211B
:10248000D0F808C04846E047022329462269606820
:1024900000F0CEFDD4F810A0A06800F0C5FD0490B7
:1024A00001F0DEF88346606800F0BEFD049001F0A4
:1024B000D7F80690206800F0B7FD049001F0D0F83E
:1024C00005900A4ADDE90510CDE9020BCDE90021AE
:1024D000DAF80000142300220321D0F808C0504687
:1024E000E04707B0BDE8F08F8F550008A055000801
:1024F00010B5044604F1080001F024F8A1798842DF
:1025000001D0012010BD0020FCE770B504460D4647
:102510006571A079684008B1012000E00020014603
:1025200004F1080001F01BF870BD70B50446257970
:1025300020684169204688472071207910B10DB983
:10254000012070BD207910B90DB10220F9E70020FB
:10255000F7E700002DE9F04104460F4690461D467E
:10256000069E0D4820604246394604F1080001F0FD
:1025700019F8A0F10804002020716071A67131469D
:1025800004F1080000F0EBFF294604F1080000F018
:10259000FEFF2046BDE8F081745200080149016049
:1025A00070470000A452000800BFFEE770B507485E
:1025B000006807490968A0FB014001464FF47A72A0
:1025C00000232046FDF7E0FE70BD0000CC00002097
:1025D000D0000020F0B504460D46E01C20F00306B4
:1025E0002F1FF019A0F148018A624FF0000CC1F8CA
:1025F0002CC0C1F830C0C1F834C0C1F838C023F0D5
:10260000010CC1F840C00D4820F0010CC1F83CC0DD
:102610004FF0045CC1F844C0002008604860886046
:10262000C860086148618861C86108626FF0060C83
:10263000C1F824C0F0194838F0BD0000A9250008F1
:102640002DE9F04707460D46002430E01B4850F8BE
:102650002400B7EB104F28D1184830F82400C0F3FD
:102660000336164810F82400C0F30318134810F876
:10267000240000F00F0905F00F00032801D045F0F9
:1026800002050F4800680121B14008430C49086069
:102690000C48011501FB060A4B462A4641465046A6
:1026A00000F012F80120BDE8F087601C84B20348F6
:1026B00050F824000028C9D100BFF4E764000020CE
:1026C0001C380240000002402DE9FF4F05460C4631
:1026D0001F466006030E4FEAE4080120A0406FEA9F
:1026E000000903209840C6432046E11704EB5171CE
:1026F000C910A4EBC1014FEA810C0F2101FA0CF1C2
:102700006FEA010A02F0030000FA03FBC2F30120A2
:1027100098400390C2F30010A0400290C2F3013031
:10272000984001902046E11704EB5171C910A4EBC9
:10273000C1014FEA810C07F00F0101FA0CF1009181
:1027400000F052FF2868304040EA0B002860E8683B
:10275000304003990843E860A88800EA090002991C
:102760000843A880A868304001990843A86005F193
:10277000200050F8280000EA0A000099084305F1FB
:10278000200141F8280000F01BFFBDE8FF8F2DE974
:10279000F04105460E46174600F026FF284600F099
:1027A0001AF8002407E0315D686803681A689047EA
:1027B0003055601C84B2BC42F5DB284600F004F8BA
:1027C00000F0FEFEBDE8F08110B5044604F10800FB
:1027D00000F0D5FE10BD10B5044604F1080000F06D
:1027E000A9FE10BD2DE9F04104460D4616461F46D0
:1027F0000E48206065603A46314604F1080000F05A
:10280000D1FEA0F108044FF00108217CE0680268C5
:1028100053684246984700BF00BF6169E06803689B
:102820009A68904700BF2046BDE8F0819C5400089C
:102830000149016070470000B852000870B50446B5
:102840000D460021204600F08DFC0446044820601F
:1028500028682146026928469047204670BD00003E
:10286000C85400088168491C8160704770B50446EF
:102870000D46206928B1206901684A6829469047B9
:1028800004E0294604F1180000F055FC70BD00007A
:1028900070B504460D460021204600F063FC044656
:1028A0000E48206004F1180000F078FCA0F1180434
:1028B000256100206061206950B1206901684A6883
:1028C000214690472069026811688847E06002E06D
:1028D0004FF0FF30E060204670BD0000C852000895
:1028E0008168491C816070470246002000BF536820
:1028F0001B8903F00203002BF9D05368998100BFB4
:1029000053681B8903F08003002BF9D102E0536860
:102910009B89D8B253681B8903F00103002BF6D1C1
:10292000704700002DE9F0410446884616461F46D0
:102930002046FFF77DFF04464A482060B8F1010FAA
:1029400006D0B8F1020F1CD0B8F1030F34D04EE01E
:10295000454860604548006840F48050434908603D
:1029600000212520FFF76CFE00212220FFF768FEE2
:1029700000212320FFF764FE00212420FFF760FEE2
:1029800035E03B4860603948001D006840F48040F5
:102990003649091D086000212920FFF751FE00215A
:1029A0002620FFF74DFE00212720FFF749FE0021DA
:1029B0002820FFF745FE1AE02E4860602B48001DD6
:1029C000006840F400402949091D086000212D20BD
:1029D000FFF736FE00212A20FFF732FE00212B20D0
:1029E000FFF72EFE00212C20FFF72AFE00BF00BFBC
:1029F000062E04D2DFE806F00406080A0C0E00BF1B
:102A0000062509E0052507E0042505E0032503E088
:102A1000022501E0012500BF00BF6068808840F00A
:102A20000400616888804FF4607040EAC500001DB2
:102A300007F0010109B1022100E000210843C7F3BA
:102A400000110843616808806068008840F0400019
:102A50006168088000212046FFF746FF2046BDE858
:102A6000F0810000F05200080030014020380240A0
:102A700000380040003C004010B504466068026821
:102A80001168884710BD2DE9F0418AB004460F4611
:102A900090461E4611A801901F2102A8019B109A82
:102AA000FDF7EAFC002001906068016842468B68EF
:102AB00039469847002507E002AB595D6068036816
:102AC000DA689047681CC5B202A8405D08B11E2DA7
:102AD000F2DB06E060680168CA6820219047681C44
:102AE000C5B2B542F6DB0AB0BDE8F08170B5044668
:102AF0000D462046FFF752FD0446044820606560FD
:102B00006068026811688847204670BD005300085D
:102B100070B504460D46164625736673207B04285F
:102B20000CDA607B142809DA227B607B62F35F1089
:102B3000C0B240F08001204600F04DF870BD10B5E5
:102B400004463421204600F046F80B21204600F0D0
:102B500042F83021204600F03EF80121204600F0E6
:102B60003AF80C21204600F036F810BD10B50446A6
:102B70000121204600F02FF810BD70B504460D4627
:102B8000207B042809DA607B142806DA29462046CF
:102B900000F038F8607B401C607370BD38B50446A7
:102BA00040F6FF7500BF3F208DF8000000208DF833
:102BB0000100A068016802224B6869469847281EF8
:102BC000A5F101018DB205D09DF8010000F0800053
:102BD0000028E8D138BD38B504460D461F208DF8D1
:102BE000000005F00F008DF8010028098DF80200A3
:102BF000A068016803224B68694698472046FFF7A2
:102C0000CDFF38BD38B504460D465F208DF8000075
:102C100005F00F008DF8010028098DF80200A0686A
:102C2000016803224B68694698472046FFF7B6FFC4
:102C300038BD000070B504460D461422042120461C
:102C4000FFF76CF9044604482060A5602046FFF7B2
:102C500076FF204670BD0000185300087047000042
:102C6000044615E020680A21C2682046904704F116
:102C70001C0000F024FC58B1A06902F00BF80746D4
:102C8000044A054B01F0DEFB054601F0A9FBA061FB
:102C9000E8E700009A9999999999B93F10B50446C7
:102CA0000022642104F11C0000F0F2FB10BD10B5FD
:102CB0000446204600F0F2FA0446204610BD18B53E
:102CC000034600BF00F090FC987B08B9012000E0AB
:102CD0000020024600F074FC00BF0AB1002018BDBD
:102CE0000020009003F10802002400F07DFC9079A0
:102CF00088B151791068405C00905179D079401EBC
:102D0000814202DA5079401C00E000205071907935
:102D1000401E9071012400F053FC00BF9DF800009C
:102D2000DDE71CB5044604F1080001F081FAD0B9D2
:102D30002068816820468847012802D0022810D1E7
:102D400007E0012001A9019004F1080001F080FAD8
:102D500008E002206946009004F1080001F078FACA
:102D600000E000BF00BF04F1080001F061FAD0B933
:102D70002068416820468847032802D0042810D1E3
:102D800007E0032001A9019004F1080001F060FAB6
:102D900008E004206946009004F1080001F058FAA8
:102DA00000E000BF00BF1CBD10B50446206960B143
:102DB0002069026891698847012802D0022804D15D
:102DC00001E0032010BD0420FCE70020FAE700002A
:102DD0002DE9F04105460F4616460021284600F031
:102DE000C1F905460F48286005F108044FF01408A2
:102DF000002020716071A07184F80780E0790028BC
:102E000003DDE07900F082FE206000BFA4F1080538
:102E10002F6126B1306829464268304690472846DF
:102E2000BDE8F0816853000810B5044660690028C9
:102E300032D0A06900282FD0606902689169884764
:102E4000012802D002280CD106E0A069026851696D
:102E5000884780F0010010BDA06902685169884769
:102E6000F9E7A069026891698847012802D0022821
:102E700012D108E0606902685169884708B10020F2
:102E8000E9E70220E7E7606902685169884708B10D
:102E90000220E0E70020DEE70020DCE72DE9F0413A
:102EA00004460D4616461F46DDF818804246394650
:102EB0002046FFF78DFF0446034820606561A66148
:102EC0002046BDE8F08100007C5300082DE9FC4756
:102ED00081460C4616E02546484600F0A5F8804697
:102EE00000F0BEFB07461C48CDE900072868112307
:102EF00000220221D0F808C02846E04701214846B8
:102F000000F03EF8484600F08FF8074600F09DFBC1
:102F10000028E0D0484600F087F807464FF0000848
:102F2000C7F8088000BF2646484600F07DF8804676
:102F300000F096FB07460848CDE9000730681123EA
:102F400000220221D0F808C03046E047484600F091
:102F50005DF8BDE8FC870000B455000870B5044674
:102F6000204600F061F8054600F06FFB08B1012033
:102F700070BD0020FCE74B680CCBC0E90023704714
:102F800070B586B006460D468DB9304600F04CF857
:102F9000044600F03FFB31466846FFF7ECFFDDE9F1
:102FA0000001CDE9040104A800F0A8F82CE0012DEF
:102FB00028D1304600F038F804466068026851694C
:102FC0008847012808D1607B012805D10020607363
:102FD000A068401EA06008E06068026851698847E8
:102FE00018B9607B08B90120607300BF314668469C
:102FF000FFF7C1FFDDE90001CDE9020102A800F001
:103000008AF801E006B070BD00BFFBE71FB50446BB
:1030100021466846FFF7AFFFDDE90001CDE9020177
:1030200002A800F05EF81FBD014608687047000066
:103030002DE9F04786B004460D46164698462046D0
:10304000FFF7F2FF814600F00BFBA0603BE020465B
:10305000FFF7EAFF814600F003FBA060A068A842EA
:1030600003D12046FFF7D2FF2DE0A068A8422ADA5C
:10307000214602A8FFF77FFFDDE90201CDE9040147
:1030800004A800F03BF82046FFF7CEFF814600F091
:10309000C1FA2046FFF7C8FF814600F0E1FAA060C0
:1030A00037462046FFF7C0FF824600F0D9FA814636
:1030B00009488DE801033868112300220221D0F865
:1030C00008C03846E047A068A842C0DB2046FFF7AA
:1030D0009DFF06B0BDE8F087BC5500080160426066
:1030E000704710B50446606801684A68002190473F
:1030F000206801684A680021904710BD10B5044659
:10310000606801684A6800219047206801684A6841
:103110000121904710BD10B50446206801684A6837
:1031200000219047606801684A680121904710BDFE
:1031300001604260704703460A46196808E0914200
:1031400001D100207047486808B1496800E001E0FB
:103150000029F4D100BF09B14A6000E01A600120E3
:10316000F0E7704730B504460D4605482060002062
:1031700060601DB121462846FFF7DDFF204630BDC7
:10318000D454000870B505462C6804E02068016836
:10319000204688476468002CF8D170BD002101608A
:1031A0007047000070B504460D46E96820688268E3
:1031B0002046904706460648006840F08050044983
:1031C000086000BFE968206842682046904770BDEB
:1031D00004ED00E010B50446207C48B100202074C6
:1031E00021466069FFF7DEFF2068416A2046884774
:1031F00010BD70B504460D46FFF7D8F9461900BF5B
:103200002146606900F05AF8FFF7D0F9B042F7D3D1
:1032100070BD10B50446207C48B901202074206898
:10322000016A204688472146606900F053F810BDC6
:1032300010B50446207C58B1002020742068416AF3
:103240002046884721466069FFF7ACFF00BFFEE7D4
:1032500010BD7047704710B504462068C16920460C
:1032600088472068416920468847002010BD00003B
:103270002DE9F04104460D46164607482060656179
:10328000A660A7683846FDF729F860600020207422
:103290002046BDE8F0810000E054000810B5044667
:1032A000054820602046FFF795FF606800F027FC86
:1032B00000206060204610BDE054000800BF044AB2
:1032C000126842F08052024B1A6000BF7047000043
:1032D00004ED00E02DE9F04105460C46002600F023
:1032E00083F9094B2246D4E90101FFF773F9074638
:1032F00028683946026828469047064600F060F97B
:10330000E6603046BDE8F0815732000801464FF4D0
:103310007A70704710B50446FFF748F910BD0000F9
:1033200070B504460D46204600F0E6F80446044811
:10333000206000222946204600F098F8204670BD03
:103340001055000870B504460D460DB1012000E08F
:10335000002002460448006800682146C36802480D
:103360000068984770BD0000140100200249016008
:1033700002490860704700009053000814010020C3
:1033800010B504462068416920468847217C09B170
:10339000012200E0002204F1080151F82210A27E6F
:1033A00021F81200E07E401CE076E07E617E8842DB
:1033B00009DAE17E6069405CA076A17E20688269BE
:1033C0002046904707E00020E076E17E6069405C9F
:1033D000A0760020207710BD10B50446607EA0B115
:1033E000207F90B90020E076E17E6069405CA076A5
:1033F000207C08B9012000E0002020740120207703
:10340000A17E206882692046904710BD70B50446B1
:103410000D46164600212046FFF7A4FE04460F483D
:10342000206026B13068214642683046904700202F
:10343000A076E07660762576680000F067FBA060F5
:10344000680000F063FBE060284600F05FFB60610D
:10345000002020742077204670BD0000A85300088B
:103460000149016070470000D053000870B5044660
:103470000D461646206841682046884705EB450101
:10348000C1EBC51106EBC101B1FBF0F0A06070BD4E
:1034900070B504460D461646324629462046FFF7CB
:1034A000E5FF204600F001F870BD10B50446206825
:1034B00001682046884760600120207310BD70B508
:1034C00004460025207B80B120680168204688479B
:1034D0006168401AA168884201D300202073207BD4
:1034E00008B9012000E000200546207B10B92046E5
:1034F000FFF7DBFF284670BD024901600021017320
:1035000081607047E05300082DE9F04104460D4604
:1035100016461F460423324629462046FFF788FDFB
:10352000BDE8F08170B504460D4629462046FFF7F8
:10353000CDFC70BD10B50446E168606803681A6987
:10354000904710BD10B5044660680268516988470D
:10355000E168084008B1012010BD0020FCE770B50B
:1035600004460D462DB1E168606803689A6890478B
:1035700004E0E168606803681A69904770BD10B59F
:103580000446E168606803689A68904710BD70B5AA
:1035900004460D46217A6068026853682A469847B7
:1035A00070BD000010B5044B036041600272047AE4
:1035B0000123A340C36010BD2055000870470000E0
:1035C00008480078002804DD06480078401E0549B8
:1035D00008700448007820B9002080F3108800BFEC
:1035E00000BF7047C4000020012080F3108800BF96
:1035F00002480078401C014908707047C400002050
:1036000000B503460A46FFF7D9FF0AB1FFF7ECFF02
:10361000184600BD10B504466068026851698847C5
:10362000012808D1207B012805D100202073A06843
:10363000401CA06008E0606802685169884718B9BA
:10364000207B08B90120207310BD10B50446206806
:10365000026851698847012800D110BD0020FCE7AD
:10366000014688687047016042600023836001233F
:10367000037343737047000001F01F02054B1A608B
:10368000044A383A126842F08042024B383B1A60D2
:10369000704700004024014001460248006880B2A3
:1036A000704700005824014070B504460D462A4674
:1036B00010212046FFF7AAFE044612482060124857
:1036C00004601248006840F4007010490860104817
:1036D000006840F6010108430D490860081F0068B2
:1036E00040F02000091F086000BF09480838006842
:1036F00000F040000028F8D01220FEF701FC204620
:1037000070BD000010540008D40000202038024092
:103710000824014030B503462D48006800F00F0032
:103720002B4C2468C4F302140A2505FB0400C8715D
:1037300027480068C0F30320254C2468C4F30234F2
:1037400005FB0400887122480068C0F30340204C48
:103750002468C4F3015405FB040048711C48001D93
:10376000006800F00F001A4C241D2468C4F30114F3
:1037700005FB0400C8701648001D0068C0F3032054
:10378000134C241D2468C4F3003405FB0400887026
:103790000F48001D0068C0F303400D4C241D246831
:1037A000C4F3035405FB0400C0B208800848006855
:1037B00000F00F00064C2468C4F3021405FB040259
:1037C000C879904201DC012030BD0020FCE70000F8
:1037D0000028004000B502461046FFF741FE0246B1
:1037E0001C4810601C48006840F480701A4908604A
:1037F0001A48006820F440301849086008460068FC
:1038000040F486000860CA2015490860532008600B
:1038100013481838006840F08000114918390860D2
:1038200000BF0F481838006800F040000028F8D0AA
:1038300047F6FF400A49143908600846006840F41A
:10384000F8000860081F006820F08000091F086069
:10385000104600BD38540008007000403438024063
:103860002428004010B5044604F10800FFF78AFC44
:1038700010BD01464868704730B504460D462946DC
:1038800004F10800FFF757FC30BD00002DE9F041BE
:1038900005462848066806F4806038B128688168C3
:1038A000284688476FF480602249086006F400408B
:1038B00000283CD0002438E01F4901EB8400D0F8F8
:1038C000000C00F4004098B104EB440205F14C01F7
:1038D00001EBC20000F032F8174F07EB8400D0F87C
:1038E000000CC0F3C0222146286803682846984788
:1038F000114901EB8400D0F8000C00F0800070B199
:1039000004EB440205F14C0101EBC20000F01CF88D
:1039100044F08001286800220368284698476FF425
:10392000004004490860601CC4B2082CC4DBBDE838
:10393000F0810000445C004000500040016821F428
:103940000041426811607047016821F080014268BF
:10395000116070472DE9F04703460C466006050EDE
:103960000120A0406FEA00080320A840C7434FF0A1
:1039700000090026B24602F0010010B1012000FA51
:1039800005F902F0040010B10120A840064302F03E
:10399000030010B10220A840064302F0020010B15B
:1039A000012000FA04FAFFF71FFE5868006838404B
:1039B00040EA0900596808605868C06838403043D8
:1039C0005968C8605868808800EA080040EA0A0020
:1039D00059688880FFF7F4FDBDE8F0874368598394
:1039E000704701464868008A7047436819837047EA
:1039F0002B4A026000BF2B4A0260082905D2DFE88B
:103A000001F0050E172029323B4447E0264A426068
:103A1000264A126842F00102244B1A603EE0244A12
:103A20004260224A126842F00202204B1A6035E0DE
:103A3000204A42601D4A126842F004021B4B1A6081
:103A40002CE01D4A4260194A126842F00802174BE6
:103A50001A6023E0194A4260144A126842F01002C8
:103A6000124B1A601AE0164A4260104A126842F07D
:103A700020020E4B1A6011E0124A42600B4A126893
:103A800042F04002094B1A6008E00F4A4260074AC0
:103A9000126842F08002054B1A6000BF00BF7047F9
:103AA000F05300087C540008000002401C3802401B
:103AB0000004024000080240000C024000100240D6
:103AC00000180240001C02400014024010B50446D9
:103AD000A069008800F0200018B1206841692046E4
:103AE0008847A069008800F0400038B14FF6BF70E9
:103AF000A1690880206881692046884710BD10B5FB
:103B0000044614B12046FCF718FC10BD10B504465D
:103B10002046FCF7E3FB10BD490050EAC12018BF66
:103B200004204A0D18BF40F0010040F2FF72B2EBD2
:103B3000515F08BF40F00200012808BF0520704710
:103B4000FCF7B4FCF8B50021C848FFF759FD4FF465
:103B50007A720421C648FEF7F3F942F2107202218C
:103B6000C448FEF7EDF943F6FE720321C248FEF7A2
:103B7000E7F90021C148FFF73BFF0121C048FFF7EB
:103B800037FF0221BF48FFF733FF0321BE48FFF78D
:103B90002FFFB749BD48FFF787FD112301220221FE
:103BA000BB48FEF7BFFE0C23B54AB949B948FEF73A
:103BB00019FEB849B848FFF73DF8B749B748FEF7CE
:103BC00095FF012004230246AC490090B448FEF75B
:103BD000C1FC012004230822A8490090B148FEF747
:103BE000B9FC012004230F22A4490090AE48FEF73F
:103BF000B1FC9F48AC4BAA4AAA490090AB48FFF7DA
:103C00004DF90120042300229E490090A848FEF7A8
:103C1000A1FC0120042302469A490090A548FEF722
:103C200099FC01200423062296490090A248FEF741
:103C300091FC012004230722924900909F48FEF73F
:103C400089FC0020042303228C4900909C48FEF745
:103C500081FC002004230722884900909948FEF740
:103C600079FC002004230322864900909648FEF741
:103C700071FC002004230522824900909348FEF73E
:103C800069FC0120042302227C4900909048FEF741
:103C900061FC002004230622784900908D48FEF73D
:103CA00059FC002004230222764900908A48FEF73E
:103CB00051FC002004231A46724900908748FEF701
:103CC00049FC0020012308226E4900908448FEF739
:103CD00041FC0020012302226B4900908148FEF73D
:103CE00039FC002001230422654900907E48FEF73C
:103CF00031FC002001230522614900907B48FEF73A
:103D000029FC7A4A78497A48FFF712FA0020012301
:103D100002465B4900907748FEF71CFC0020012317
:103D20001A46574900907448FEF714FC724A7149CC
:103D30007248FFF7FDF90020012306225049009048
:103D40006F48FEF707FC0020012307224C49009032
:103D50006C48FEF7FFFB6B4A69496B48FFF7E8F9CF
:103D6000002001230822464900906848FEF7F2FB34
:103D7000002001230922424900906548FEF7EAFB32
:103D8000634A62496348FFF7D3F94D4A5049624894
:103D9000FFF769FC4B4A4F496048FFF764FC4A4A09
:103DA0004D495F48FFF75FFC484A4C495D48FFF7C3
:103DB0005AFC4F4A58495C48FFF790F94F4A574917
:103DC0005A48FFF78BF9504A55495948FFF786F989
:103DD000584E544C4F4D2A4621463046FFF77EF947
:103DE000064600BF5448504A504B514C514D2B4948
:103DF000026043608460C560016100BF4F48FFF707
:103E0000E9FC1C494E48FEF743FD4E4C4C4D2946FB
:103E10002046FEF713FD04464B4820600020A060BA
:103E200000BF4FF47A71494800F08CFA484C474D76
:103E30004FF4FA7229462046FFF71AFA044645481D
:103E40002060002104F11C00FFF76AFAA0F11C04B5
:103E50000020A0612046FFF7DCF900BF26463E4A5D
:103E60003E493046FCF72DFBF8BD00000000002065
:103E7000180100203001002048010020040000202B
:103E80000C000020140000201C0000206001002015
:103E90002800002080010020980100203000002030
:103EA000A8010020C0010020D8010020F00100205E
:103EB0000C020020240200203C02002054020020BA
:103EC0006C020020840200209C020020B40200202A
:103ED000CC020020E4020020FC0200201403002099
:103EE0002C030020440300205C0300207403002006
:103EF000380000208C030020A40300204000002094
:103F0000BC030020D403002048000020EC03002064
:103F100004040020500000201C0400202C04002079
:103F20003C0400204C0400205C04002068040020B5
:103F30007404002080040020900400205800002019
:103F4000A4040020C0040020E4520008CC04002097
:103F5000FC0400203853000800000008AF2C0008C3
:103F600030380A2801D20120704700207047000035
:103F700086B000240026EDE077480068006804A9B8
:103F8000426875480068904788B19DF817009DF811
:103F900016109DF8152071A3CDE90032CDE902106D
:103FA00000231A4619467248FEF76DFD07E071A01E
:103FB00000231A46194600906D48FEF764FD6E48CE
:103FC000FEF77DFE012804D0022804D0032806D184
:103FD00003E0641E04E0641C02E0002400E000BF73
:103FE00000BF6648FEF7A1FA012814D1644D687934
:103FF00008B9012000E000200146286842682846F0
:10400000904700BF5FA00A2300220121009058487A
:10401000FEF739FD00265A48FEF76AFA60B91EB964
:104020005348FEF729FD761C59A000231A460121AA
:1040300000904F48FEF727FD5848FEF776FA012812
:104040000AD157A011230022012100904848FEF711
:104050001AFD5748FEF72CF95648FEF766FA012874
:1040600003D101215248FEF757F85348FEF75DFA95
:10407000012827D15148FFF734F85148FFF731F8AC
:104080005048FFF72EF85048FFF72BF84F490868C3
:10409000C11700EB91718910A0EB8101491C4B4ABB
:1040A00011601046006810B90120114608604748A9
:1040B000006847A114231122CDE9001000212C48EB
:1040C000FEF7E1FC002C1BDD40480068012806D00B
:1040D000022808D003280AD0042810D10BE0374862
:1040E000FFF719F80BE03648FFF715F807E03548F9
:1040F000FFF711F803E03448FFF70DF800BF29E09F
:10410000002C1BDA31480068012806D0022808D0AC
:1041100003280AD0042810D10BE02848FEF7EEFF50
:104120000BE02748FEF7EAFF07E02648FEF7E6FF28
:1041300003E02548FEF7E2FF00BF0BE01F48FEF753
:10414000D0FF1F48FEF7CDFF1E48FEF7CAFF1E48EE
:10415000FEF7C7FF10E700005C0000205254433A0E
:1041600020253032643A253032643A2530326400FA
:10417000300000202D2D2D00F00100200C02002029
:10418000440300205374726F6D2D416E00000000D7
:104190005374726F6D2D417573000000240200206E
:1041A000526F7574696E653A2053746172740000C1
:1041B000900400203C02002054020020380000201F
:1041C0004000002048000020500000206000002037
:1041D0004D3A25640000000010B500290AD0087887
:1041E000002807D005487844FDF748F9002801D099
:1041F000002010BD0248784410BD000002140000E9
:10420000FA13000010B500290AD00878002807D05A
:1042100005487844FDF732F9002801D0002010BD90
:104220000248784410BD0000F2130000EA130000B9
:1042300000B50246FFF7D8F99079D179884201DBC1
:10424000012000E000200346FFF7BAF9184600BD40
:1042500030B502460B460024FFF7C6F99079D179B4
:10426000884211DA18781579116848551179D07992
:10427000401E814202DA1079401C00E000201071DB
:104280009079401C90710124FFF79AF9204630BDC7
:1042900010B50246906A08B90120906203230020FD
:1042A0000CE0141D04EBC004646834B9141D44F818
:1042B000301004EBC004636010BD401C0428F0DB28
:1042C0000020F9E710B50246131D53F83100002411
:1042D000131D03EBC1035C60131D43F8314010BD97
:1042E0000246101D50F83100704710B50346181DE6
:1042F0005C6A40F83410EAB1986AD86215E0986AAE
:10430000401C9862986A042801D100209862D3E981
:104310000A04A04200D109E0181D9C6A00EBC40009
:10432000007900F0020000B100E0E8E700BF986A01
:10433000586201E000205862181D5C6A50F8340091
:1043400010BD00002DE9FC5F04468A462046FFF7B9
:104350000DF804461C48206000206062A06200BF87
:1043600005E00022211D01EBC0014A60401C042829
:10437000F7DB002060600721A1601FFA8AF9DFF8EF
:104380004CB01348C0F800B007204FF0E02108619E
:10439000484600F084FA074600220E4B00F092FADD
:1043A000054600220C4B00F08BFBCDE9000100F02C
:1043B00049FA4FF0E02148610848C0F8009000BF7A
:1043C0002046BDE8FC9F0000645400084533000807
:1043D000C8000020000040400000F03FD000002056
:1043E00021F00042A2F16052B2F5801F01F00043BB
:1043F00028BFD2F17F6C0BD95FEA001C43EAC202EE
:1044000042EB507018BF704728BF20F00100704782
:10441000B2F5801FBCBF184670474FEA410C1CF52F
:10442000001F02D2084600F05EBE70B500F0F4FA3C
:1044300000000089FFF7F6BF4FF00040A0F58000B4
:104440007047000010B591EA030F48BF83F00043A6
:1044500000F13E83841A71EB030C05D2121943EB71
:104460000C03001B61EB0C01DFF824E14FEA11544F
:10447000A4EB135C1EEA430F18BF9EEA445F73D09F
:1044800023EA0E03DCF1200E21EA045143F48013E9
:1044900032D322FA0CFE10EB0E0023FA0CFE41EB95
:1044A0000E01CCF1200E03FA0EFE10EB0E0051F1BE
:1044B0000001B1F5801FCCF1200E32D201EB045186
:1044C00012FA0EF2BDE8104058BF7047401C38BFCA
:1044D0005FEA420218BF7047002814BF20F00100B5
:1044E00041F100014FEA410313F5001F38BF704747
:1044F000A1F1C04100F0DEBA012A43EB0302ACF1A6
:10450000200CDCF11F0E32BF4FF0000E23FA0CF32B
:1045100010EB030041EB0451B4EB115FD0D0A1EBE1
:10452000045101F5801149085FEA300001EB0451A4
:104530000ED350F1000038BF12FA0EFE08D1BDE8CC
:104540001040C9E7401C38BF5FEA4202CAD1C3E746
:10455000BDE810404FEA410313F5001F38BF704714
:10456000A1F1C04100F0A6BA9EEA445F08D011EA6A
:104570005E0FBDE8104004BF01F00041002070470D
:10458000BDE8104070B500F047FA00BF64FBBE3EC6
:104590000000E0FF2DE9C04130B4DFF8A0C23CEAE2
:1045A000111418BF3CEA131400F0EC8081EA0305F3
:1045B0001CEA111444EAD57418BF1CEA131500F064
:1045C000C780A4EB05044FF0004545EAC12145EA48
:1045D000C32341EA505143EA525304F17F74994294
:1045E00004F500344FEAC0204FEAC22208BF9042CF
:1045F00000F09C804FEA13650FF24016765D4FEA9B
:10460000134506FB05F7C7F1807706FB07F74FEA6E
:10461000D737A7FB03687642C8F58038A7FB06CEDC
:1046200038BFA8F1010807FB08E64FF0000EA6FB13
:10463000028CE6FB03CEDCF1000CCEF1004E38BF5D
:10464000AEF1010EA6FB0C584FF000074FF000052D
:10465000E6FB0E87A1FB08C6A0FB07CE16EB0E06F5
:1046600045F10005E1FB076515F1E04E7EBFA4F5BD
:1046700080345FEA46066D4116F1800745F100057A
:104680004FEA17274FEA066647EA0567A6F1DE46B6
:10469000B6F1805F4FEA15251FD9384624F0010C8A
:1046A00005EBC471BCF1FE6F01EB0C1102D8F0BC3C
:1046B000BDE8008124425CBF01F5801E9EEAC47FF4
:1046C00002D4F0BCBDE80081244238D4F0BCA1F192
:1046D000C041BDE8004100F0EDB94FEAD22242EA04
:1046E00043524FEAD323A7FB02864FEAD02040EA89
:1046F000415007FB03661EEA0E0F4FEAD12105FB6E
:10470000026658BFA6EB0056B6EB00564FEA520EB3
:104710004EEAC37E18EB0E0E56EB530EBDD518EBCA
:1047200002085E417F1C55F10005B6E74FF4801585
:104730004FF000074FF000064FF00008ADE7F0BC67
:104740004FF0000001F1C04101F00041BDE80081DF
:1047500011EA0C1F0CEA131500D00CE013EA0C1F31
:1047600000F025804FF00000F0BC81EA030101F069
:104770000041BDE80081F0BCBDE8004181EA0301D1
:1047800000F098B9F0BCBDE8004170B500F044F904
:10479000097EFC3E00F007B881EA03014FF00000FB
:1047A00001F00041704781EA030100F083B9F0BCD9
:1047B000BDE800414FF0000021497047FFFDFBF9C3
:1047C000F7F5F4F2F0EEEDEBE9E8E6E4E3E1E0DE44
:1047D000DDDBDAD8D7D5D4D3D1D0CFCDCCCBCAC8B6
:1047E000C7C6C5C4C2C1C0BFBEBDBCBBBAB9B8B7DD
:1047F000B6B5B4B3B2B1B0AFAEADACABAAA9A8A8D0
:10480000A7A6A5A4A3A3A2A1A09F9F9E9D9C9C9B9D
:104810009A99999897979695959493939291919048
:104820008F8F8E8E8D8C8C8B8B8A898988888787D9
:104830008685858484838382828181800000FF074E
:104840000000F87F4FEA1153A3F58063D3F11E03F4
:10485000A8BFD3F1200C08DB4FF0004242EAC1228E
:1048600052EA505232FA03F0704709420BD4102B2F
:10487000C4BF0020704703F5787CBCF1FF3F05D032
:104880004FF0FF3070474FF00000704770B500F0F8
:10489000C3F800BF4992248000207047F0E7B0FAC7
:1048A00080F310FA03F10AD0C3F11D0303F580630E
:1048B0004FEA41504FEA035202EBD12170474FF0CB
:1048C00000007047DFF848C170B51CEA111E1EBF1A
:1048D0001CEA13159EEA0C0F95EA0C0F00F06F808E
:1048E00081EA030423EA4C134EEAD47E21EA4C11F8
:1048F00041F4801143F48013AE44A1FB024CA0FBB1
:104900000365AEF17F7E361955EB0C05A1FB034C18
:104910004CF10003A0FB021C16EB0C06654153F1A1
:104920000003094218BF46F0010613F4007F0BD1C3
:104930004FEA03314FEA0530340341EA155140EAAA
:1049400016506FF003020AE04FEAC3214FEAC52078
:10495000F40241EA555140EA56506FF0020202EB70
:104960002E4201EB025585EACE710AD05FEA440C73
:1049700018BF24F0004450F1000041F1000120EA8A
:10498000D47040F2FE7C624500D270BDA84214BFD4
:104990004FF080444FF04044002E08BF0024BEF189
:1049A000806FA8BFA1F1C041BDE8704080F2828055
:1049B0004FF0000001F1C04101F0004170479EEA54
:1049C0000C0F0CEA131518BF95EA0C0F06D04FF028
:1049D000000081EA030E0EF0004170BD00F01CF8EB
:1049E0008900013E00F007B800F009B84FEA430C17
:1049F0005FEA5C5C08D081EA030100F05BB84FEA33
:104A0000410C5FEA5C5CF6D14FF000000149704751
:104A10000000FF070000F87F0EF1020E2EF0030EDB
:104A20005EF8046B364205D4012A43EB030515F505
:104A3000001F12D8012841EB010C1CF5001F0CD8F7
:104A40000ED14FEAD17C15F5001F0CEB4C0C0CF18C
:104A5000020C08BF4CEBD37C04E04FF0080C01E0E3
:104A60004FEAD37C0CEB4C0526FA05F606F0070658
:104A7000B6F1040C06D20EEB860CBDE870404CF08B
:104A8000010C6047DFE80CF0090B02024FF0004117
:104A90004FF00000A1F5002170BD19461046012815
:104AA00051EB010418BFD4F5001484BF002001F0BD
:104AB000004170BD0808A0F500114FEA31017047B0
:104AC00010B591EA030F48BF83F000433FF5C2AC35
:104AD000841A71EB030C07D212198CF0004C43EBD3
:104AE0000C03001B61EB0C01DFF8A4E14FEA115449
:104AF000A4EB135C1EEA430F18BF9EEA445F00F06C
:104B0000B08023EA6E03524221EA0451C3EB6E03E4
:104B100038BF5B1EDCF1200E25D322FA0CFE10EB11
:104B20000E0043FA0CFE41EB0E01CCF1200E03FA0D
:104B30000EFE10EB0E0051F10001CCF1200E29D435
:104B400012FA0EF201EB0451BDE8104058BF704755
:104B5000401C1CBFB2F1004F704700280CBF491C1D
:104B600020F00100704712EB020E43EB030218BF66
:104B70004FF0010E4EEA4202ACF1200CDCF11E0EA9
:104B800054D943FA0CFE10EB0E0051F1FF31CCF179
:104B90001E0ED5D50EF1010E12FA0EFE404141EB6C
:104BA000010101EB445C5FEA5C5C10D910EBDE7044
:104BB00001EB045138BFBEF1004FBDE8104018BFF3
:104BC000704700280CBF491C20F00100704730D20C
:104BD0004FEAD42C11F5001124F400641BD0B1FA73
:104BE00081F20B3AA41AA41ED2F12003914030FAAC
:104BF00003F31943904001EBCC71002C01EB0451FD
:104C0000BDE81040A8BF704701F1C0414FF000005F
:104C100001F000417047B0FA80F310FA03F100D1BF
:104C200010BDE41A173C4805C90AE4E701EB04513A
:104C300010BD491001EB0451BDE810404FEA3000AF
:104C400002E04FF0000170474A0008BF0042F8D070
:104C5000B2F5001F28BF704701F000414FF000007F
:104C600070479EEA445F07D011EA5E0FBDE810402E
:104C700004BF002100207047BDE8104070B5FFF769
:104C8000CBFE00BF40DFF63E83F000411046704788
:104C90000000E0FF43004FEAD30C4FEA3C0C4340D6
:104CA0001FBF40070CF1605113F0FE4F70471CF01E
:104CB000006F03D100200CF0004170470CF000435E
:104CC00043EA507010B540EACC0000F0C6F900BFCE
:104CD000000000924FEA0001FFF7ECBE4FF00041E8
:104CE0004FF00000A1F500217047401058BFC0F1FF
:104CF0004040491058BFC1F140418142EFF300806C
:104D0000704700004FF47F0C1CEAD0121EBF1CEA53
:104D1000D11392EA0C0F93EA0C0F00F0858090EA11
:104D2000010F48BF42F4807240F4000C41F40000CF
:104D30002CF07F4120F07F4000B58142A2EB0302BE
:104D40000FF2081CACEB504EC0F100009EF800E0E2
:104D50004FEA4E0E00FB0EFC38BF49004FEA2C1CF8
:104D600002F5FA020CFB0EF34FEACE1E4FEA112CAD
:104D70004FEAC1210EEB635E42EB22420EFB0CFCBC
:104D80004FEA1C5300FB03114FEA112C4FEA01318B
:104D90000EFB0CFC4FEADC4C00FB0C11C14228BF9F
:104DA00009184CEB03335DF804EB10EB410143EBC6
:104DB000C250B2F57C0F38BF704729D512F0F00F02
:104DC0001CBF00F1C04000F00040704700818283AA
:104DD0008485868788898B8C8D8E8F91929395960A
:104DE00097999A9C9D9FA0A2A3A5A7A8AAACAEB094
:104DF000B2B3B5B7B9BCBEC0C2C5C7C9CCCED1D499
:104E0000D7D9DCDFE2E6E9ECF0F3F7FAFE000000C8
:104E10004FEA400C0CF1807CBCF17E4F28BF7047FC
:104E2000B0F1C04000F05FB990EA010F0CEAD11375
:104E300048BF42F48072624538BF634507D213F41D
:104E40007F0F16D080EA010000F00040704710B5D7
:104E500000F003F9097EFC3E00F005B880EA01008D
:104E600000F00040704780EA010000F0004000F0D0
:104E70003AB912F47F0F04BF0248704780EA01007C
:104E800000F031B90000C07FC10DD1F19E0206DBF8
:104E90004FEA002343F0004323FA02F07047004238
:104EA00007D54FEA4001B1F1FE4F02D24FF00000AA
:104EB000704710B500F0D1F8499224800020704767
:104EC0006FEA200070470000B0FA80F310FA03F296
:104ED000C3F19D030AD0D90501EB1220530638BF58
:104EE000704700F1010008BF20F00100704700008A
:104EF00050EA010C00F113801CF5000F58BFBCF5FF
:104F0000000F01D48842704707D710F5000F58BF33
:104F100011F5000F15D488427047894270471CF57F
:104F2000000F04D5BCF5000FF7D5814270474FF054
:104F3000807C1CEB400F38BF1CEB410F01D281423B
:104F4000704710B500F089F8922449004FF00050E6
:104F50004FF08051FFF7C9BE4FF47F0C1CEAD0120E
:104F60001EBF1CEAD11392EA0C0F93EA0C0F00F05B
:104F7000478090EA010F48BF42F480724FF0004C26
:104F80004CEA00204CEA012102EB0302A0FB0113D2
:104F9000A2F50002002918BF43F001035B0028BFFF
:104FA0004FEA330342EB22425FEA132C4CEBC25030
:104FB0002EBFBCEB436FB2F57C0F70474FEA036C1A
:104FC000BCF1004F08BF20F00100B2F57C0F38BFE4
:104FD00070470BD582F0FF0212F5803FC8BF7047C3
:104FE00000F1C040D8BF00F00040704700F5000C51
:104FF0005FEA4C0C48BF7047B0F1C04000F073B896
:1050000090EA010F0CEAD11348BF42F48072624566
:1050100038BF634504D280EA010000F000407047C9
:1050200010B500F01AF800BF8900013E00F007B883
:1050300000F009B85FEA410C5FEA1C6C08D080EA16
:10504000010000F050B85FEA400C5FEA1C6CF6D13A
:105050004FF00040A0F5800070470EF1020E2EF0D8
:10506000030E5EF8044B244204D44FEA4102B2F12D
:105070007F4F11D84FEA4003B3F17F4F0CD80ED1C8
:105080004FEAD07CB2F17F4F0CEB4C0C0CF1020CD0
:1050900008BF4CEBD17C04E04FF0080C01E04FEA74
:1050A000D17C0CEB4C0324FA03F404F00704B4F1B4
:1050B000040C06D20EEB840CBDE810404CF0010C41
:1050C0006047DFE80CF0070802024FF00040A0F54F
:1050D000800010BD0846420018BFD2F1807288BF20
:1050E00000F0004010BDFF2141EAD050C0057047DC
:1050F00051EA000C00F113801CF5000F58BFBCF5FD
:10510000000F01D48142704707D711F5000F58BF37
:1051100010F5000F15D481427047894270471CF585
:10512000000F04D5BCF5000FF7D5884270474FF04B
:10513000807C1CEB410F38BF1CEB400F01D2884232
:10514000704780EA010081EA000180EA0100FFF770
:10515000F8BEFBF7B7BE0000000000000000000032
:10516000303132333435363738394142434445469D
:105170004030580030313233343536373839616297
:105180006364656640307800040000080000000099
:1051900000000002000100001000000002400000BA
:1051A000000000A00000000005400000000000C852
:1051B000000000000C4000000000409C00000000C7
:1051C000194000000020BCBE000000003440000078
:1051D000BFC91B8E00000004B5400000504BCFD06B
:1051E0006607E2CF010000006C4100003E8251AA38
:1051F000DFEEA73401000000D9420000DCB5A0E2D8
:105200003A301F97FFFFFFFFB4450000FD25A0C8FF
:10521000E9A3C14FFFFFFFFFFF3F00000000008038
:1052200000000000FF3F00000000008000000000C0
:105230000000000000000000413B0008413B000866
:10524000413B0008413B0008000000000000000056
:1052500000000000000000007338000879380008E2
:105260000000000000000000653800080000000099
:1052700000000000000000000B25000800000000F6
:105280000000000000000000F12400082B250008A9
:10529000000000000000000000000000000000000E
:1052A00000000000413B0008413B0008413B000872
:1052B0000000000000000000413B0008413B0008E6
:1052C0000000000000000000652800080000000049
:1052D00000000000000000006D2800080000000031
:1052E00000000000E12800080000000000000000AD
:1052F000E928000800000000000000000000000095
:10530000792A000800000000872A00080000000039
:1053100000000000000000006D2B000800000000ED
:10532000112B00087B2B000800000000000000008B
:105330000000000000000000AF2C0008000000008A
:10534000D5310008F331000813320008313200086B
:1053500000000000612C00089D2C00085D2C000856
:105360000000000000000000232D0008A92D000807
:10537000413B00080000000000000000232D000851
:10538000A92D0008292E00080000000000000000E0
:10539000413B0008413B0008413B0008413B0008FD
:1053A0000000000000000000D933000800000000E9
:1053B000000000000000000081330008413B0008AD
:1053C000413B0008413B00080000000000000000D5
:1053D000413B0008413B00080000000000000000C5
:1053E000413B0008413B00080000000000000000B5
:1053F000413B0008413B0008413B0008413B00089D
:10540000413B0008413B0008000000000000000094
:10541000D933000800000000000000000000000078
:105420008133000899360008793600080000000032
:105430000000000000000000000000001537000818
:1054400000000000000000007338000879380008F0
:10545000413B0008413B000865380008000000009F
:105460000000000091420008C5420008E142000827
:10547000EB420008000000000000000000000000F7
:1054800055390008EB39000800000000DD3900083C
:10549000E3390008000000000000000000000000E8
:1054A0008F2700080000000000000000000000003E
:1054B00000000000000000000000000000000000EC
:1054C0000000000000000000413B00080000000058
:1054D0000000000063310008000000000000000030
:1054E0009D32000800000000D5310008F3310008AB
:1054F000133200083132000800000000413B000870
:10550000553200085332000800000000000000007F
:10551000153300080D3300080000000000000000F3
:105520008F3500087F3500085F35000835350008E5
:10553000453500085A69656C3A2025642C2025649D
:105540002C20256400506F73313A25642C20323AA8
:1055500025642C20333A256400526F7574696E659A
:105560003A20537461727400526F7574696E653AB3
:1055700020576F726B696E672E2E2E00526F7574F6
:10558000696E653A2046696E697368656400005A01
:1055900069656C3A2025642C2025642C2025640044
:1055A000506F73313A25642C20323A25642C203315
:1055B0003A256400506F733A20256400506F7325BC
:1055C000643A2025640000001857000800000020FD
:1055D0001801000060010008305800081801002080
:1055E000701C00007C0100081C000000430000004B
:1055F000F8FFFFFF0C0000000E0000000F0000008D
:105600002E0000001001000043000000F8FFFFFF23
:1056100000404040404040404040414141414140C5
:10562000404040404040404040404040404040407A
:105630004005020202020202020202020202020209
:10564000022020202020202020202002020202020E
:105650000202909090909090101010101010101066
:105660001010101010101010101010100202020272
:1056700002028888888888880808080808080808B6
:1056800008080808080808080808080802020202B2
:1056900040000000000000000000000000000000CA
:1056A00000000000000000000000000000000000FA
:1056B00000000000000000000000000000000000EA
:1056C00000000000000000000000000000000000DA
:1056D00000000000000000000000000000000000CA
:1056E00000000000000000000000000000000000BA
:1056F00000000000000000000000000000000000AA
:105700000000000000000000000000000000000099
:105710000000000031E4FFFF000000000000000076
:105720000000000000000000000000000000000079
:1057300000000000000000000000000060010020E8
:105740000000000000000000000000000000000059
:105750000000000000000000000000000000000049
:105760000000000000000000000000000000000039
:105770000000000058000020000000002000090088
:1057800040001100A4101600B4101700F5102700F7
:10579000E5102600D510290001003000110031006D
:1057A0002100320031003300421034005210350025
:1057B00002103600121037006210390072103A00E1
:1057C00082103B0092103C0097004300A70042006B
:1057D000A7204D00B7204C00000000000000000092
:1057E00000000000000000000000000000000000B9
:1057F00000000000000000000000000000000000A9
:105800000000000000000000000000000000000098
:105810000000000000000000800000000000000008
:105820000000000000000000000000000000000078
:0400000508000125C9
:00000001FF
